:1000000045C0000060C000005EC000005CC0000091
:100010005AC0000058C0000056C0000054C0000084
:1000200052C0000050C000004EC000004CC0000094
:100030004AC0000048C0000046C0000044C00000A4
:1000400042C0000040C000003EC000003CC00000B4
:100050003AC0000038C0000036C0000034C00000C4
:1000600032C0000030C000002EC000002CC00000D4
:100070002AC0000028C0000069C0000024C00000A1
:1000800022C0000020C000001EC0000011241FBEBE
:10009000CFEFD0E1DEBFCDBF11E0A0E0B1E0E2E103
:1000A000F2E000E00BBF02C007900D92AE31B10745
:1000B000D9F721E0AEE1B1E001C01D92A532B2074F
:1000C000E1F702D0A4C09CCF2DD080E091E09093C6
:1000D0002201809321018EE091E069D02FEF83ED22
:1000E00090E3215080409040E1F700C00000F3CF42
:1000F0008A3079F480919B0085FFFCCF8AE0809361
:100100009C0080919B0085FFFCCF8DE080939C003C
:1001100006C090919B0095FFFCCF80939C0080E0EF
:1001200090E008951092980083E38093990088E905
:1001300080939A0086E080939D0078940895909132
:100140009B0095FFFCCF80939C0008951F920F9217
:100150000FB60F9211240BB60F922F933F934F932C
:100160005F936F937F938F939F93AF93BF93EF931F
:10017000FF9380919B0088233CF480919C008093A6
:100180001E0180911E01DBDFFF91EF91BF91AF91C6
:100190009F918F917F916F915F914F913F912F919F
:1001A0000F900BBE0F900FBE0F901F9018950F93DE
:1001B0001F93CF93DF93E0912101F09122012381DE
:1001C00021FF1BC08C01D0E0C0E0F80181918F01BC
:1001D0006091210170912201DB011896ED91FC9153
:1001E0001997882331F00995892B79F3DFEFCFEF49
:1001F000ECCF8AE00995892B19F08FEF9FEF02C0B1
:100200008D2F9C2FDF91CF911F910F910895F8941E
:02021000FFCF1E
:1002120000000002000000007800000000004865B5
:0E0222006C6C6F2041546D65676131323300A2
:00000001FF
