:1000000045C0000053C0000051C000004FC00000B8
:100010004DC000004BC0000049C0000047C00000B8
:1000200045C0000043C0000041C000003FC00000C8
:100030003DC000003BC0000039C0000037C00000D8
:1000400035C0000033C0000031C000002FC00000E8
:100050002DC000002BC0000029C0000027C00000F8
:1000600025C0000023C0000021C000001FC0000008
:100070001DC000001BC0000026C0000017C000000B
:1000800015C0000013C0000011C0000011241FBEE5
:10009000CFEFD0E1DEBFCDBF21E0A0E0B1E001C0F5
:1000A0001D92A130B207E1F745D04AC0A9CF109206
:1000B000980083E38093990088E980939A0086E012
:1000C00080939D0008951F920F920FB60F921124F6
:1000D0002F933F938F939F9380919B00882324F4C9
:1000E00080919C008093000180910001813331F464
:1000F00088B3813019F480E38093000118BA20E0BE
:1001000030E008C088B3880F88BB88B3816088BBA3
:100110002F5F3F4F8091000190E0C097281739076B
:100120008CF39F918F913F912F910F900FBE0F9065
:100130001F90189518BA8FEF87BBB9DF7894FFCF5F
:04014000F894FFCF61
:00000001FF
