:1000000045C0000060C000005EC000005CC0000091
:100010005AC0000058C0000056C0000054C0000084
:1000200052C0000050C000004EC000004CC0000094
:100030004AC0000048C0000046C0000044C00000A4
:1000400042C0000040C000003EC000003CC00000B4
:100050003AC0000038C0000036C0000034C00000C4
:1000600032C0000030C000002EC000002CC00000D4
:100070002AC0000028C0000026C0000024C00000E4
:1000800022C0000020C000001EC0000011241FBEBE
:10009000CFEFD0E1DEBFCDBF11E0A0E0B1E0EAEEEE
:1000A000F2E000E00BBF02C007900D92A032B10752
:1000B000D9F721E0A0E2B1E001C01D92A332B2075E
:1000C000E1F760D010C19CCF81E090E00090210169
:1000D00002C0880F991F0A94E2F7816487B987E804
:1000E00086B90895CF93DF93CDB7DEB7A0970FB64B
:1000F000F894DEBF0FBECDBF80E1E0E0F1E0DE01AD
:10010000119601900D928A95E1F780E1E0E1F1E02E
:10011000DE01519601900D928A95E1F740E050E0A2
:100120002DC0FA01EE0FFF1F81E090E08C0F9D1FA4
:10013000E80FF91F2089318983B390E02817390728
:10014000D9F4FA01EE0FFF1F81E090E08C0F9D1FA4
:10015000E80FF91F808188BB81E083B920E030E09F
:1001600008C083B1880F83B983B18F5F83B92F5FD4
:100170003F4F24173507ACF34F5F5F4F48305105B1
:1001800084F2CCCF10922201109221018FEF82B91C
:1001900087BB81BB14BA13B818BA82BB789496D0C7
:1001A00093DF66D09FDF8BB38B7F8BBB85E08A9517
:1001B000F1F700008BB384608BBB95E09A95F1F763
:1001C00000008BB38B7F8BBB8FE891E00197F1F739
:1001D00000C0000008959BB39F709BBB40E050E0BF
:1001E00017C0282F30E0042E02C0359527950A94B9
:1001F000E2F7217033279BB3BA016C5F7F4F02C0D7
:10020000220F331F6A95E2F7292B2BBB4F5F5F4FFD
:100210004430510534F3C7CF08958BB3887F8BBB2F
:1002200083E0D9DF8FE496E40197F1F700C0000086
:1002300083E0D1DF8FE496E40197F1F700C000007E
:1002400083E0C9DF87E592E00197F1F700C0000085
:1002500082E0C1CF0895CF93C82F8BB3887F8BBB2B
:100260008C2F82958F70B7DF8C2FB5DFCF910895DB
:100270008FEF8ABB1BBA2FEF80E792E021508040BE
:100280009040E1F700C00000C8DF88E2E4DF8FE3C0
:100290009FE10197F1F700C000008CE0DCDF8FE305
:1002A0009FE10197F1F700C0000086E0D4DF8FE303
:1002B0009FE10197F1F700C0000081E0CCDF8FE300
:1002C0009FE10197F1F700C0000008951092980097
:1002D00083E38093990088E980939A0086E0809375
:0A02E0009D0078940895F894FFCF74
:1002EA0006005B004F0066006D007D0007007F007E
:1002FA00FE00FD00FB00F700EF00DF00BF007F00FB
:00000001FF
