:1000000045C0000053C0000051C000004FC00000B8
:100010004DC000004BC0000049C0000047C00000B8
:1000200045C0000043C0000041C000003FC00000C8
:100030003DC000003BC0000039C0000037C00000D8
:1000400035C0000033C0000031C000002FC00000E8
:100050002DC000002BC0000029C0000027C00000F8
:1000600025C0000023C0000021C000001FC0000008
:100070001DC000001BC000002DC0000017C0000004
:1000800015C0000013C0000011C0000011241FBEE5
:10009000CFEFD0E1DEBFCDBF21E0A0E0B1E001C0F5
:1000A0001D92A330B207E1F762D00BC1A9CF109225
:1000B000980083E38093990088E980939A0086E012
:1000C00080939D00089590919B0095FFFCCF8093B5
:1000D0009C0008951F920F920FB60F9211240BB639
:1000E0000F922F933F934F935F936F937F938F93D1
:1000F0009F93AF93BF93EF93FF9380919B008823CF
:100100001CF580919C0080930201DDDF809102014B
:100110008A30D1F0C6D08091000190910101019602
:100120009093010180930001409711F480EC7ED000
:100130008091000190910101819731F481E076D0A6
:100140001092010110920001FF91EF91BF91AF91C8
:100150009F918F917F916F915F914F913F912F91DF
:100160000F900BBE0F900FBE0F901F9018956BD085
:1001700018BA8FEF87BB9BDF7894FFCF8BB38B7F51
:100180008BBB85E08A95F1F700008BB384608BBB55
:1001900095E09A95F1F700008BB38B7F8BBB8FE8CE
:1001A00091E00197F1F700C0000008959BB39F70A4
:1001B0009BBB40E050E017C0282F30E0042E02C067
:1001C000359527950A94E2F7217033279BB3BA013E
:1001D0006C5F7F4F02C0220F331F6A95E2F7292B15
:1001E0002BBB4F5F5F4F4430510534F3C7CF0895A9
:1001F0008BB3887F8BBB83E0D9DF8FE496E40197D4
:10020000F1F700C0000083E0D1DF8FE496E40197AE
:10021000F1F700C0000083E0C9DF87E592E00197B5
:10022000F1F700C0000082E0C1CF0895CF93C82F3E
:100230008BB3887F8BBB8C2F82958F70B7DF8C2F11
:10024000B5DFCF9108958FEF8ABB1BBA2FEF80E700
:1002500092E0215080409040E1F700C00000C8DFEC
:1002600088E2E4DF8FE39FE10197F1F700C000002F
:100270008CE0DCDF8FE39FE10197F1F700C0000025
:1002800086E0D4DF8FE39FE10197F1F700C0000023
:1002900081E0CCDF8FE39FE10197F1F700C0000020
:1002A0000895CF93C82F8BB381608BBB8BB3897FAD
:1002B0008BBB8C2F82958F7079DF8C2F77DFCF915E
:0602C0000895F894FFCF41
:00000001FF
