S0130000696E7472727570745F45582E737265638D
S113000045C0000053C0000051C000004FC00000B4
S11300104DC0000059C000006DC0000047C0000082
S113002045C0000043C0000041C000003FC00000C4
S11300303DC000003BC0000039C0000037C00000D4
S113004035C0000033C0000031C000002FC00000E4
S11300502DC000002BC0000029C0000027C00000F4
S113006025C0000023C0000021C000001FC0000004
S11300701DC000001BC0000019C0000017C0000014
S113008015C0000013C0000011C0000011241FBEE1
S1130090CFEFD0E1DEBFCDBF21E0A0E0B1E001C0F1
S11300A01D92A230B207E1F734D03AC0A9CF8AB783
S11300B082608ABF89B789BF08958AB788608ABF7A
S11300C089B7806289BF08951F920F920FB60F926D
S11300D011248F939F9381E090E09093010180938A
S11300E000018FEF88BB9F918F910F900FBE0F90EF
S11300F01F9018951F920F920FB60F921124109211
S113010001011092000118BA0F900FBE0F901F90BA
S113011018958FEF87BB18BACADFCFDF7894FFCF6B
S1070120F894FFCF7D
S9030000FC
