S011000073657269616C5F65782E7372656357
S113000045C0000058C0000056C0000054C00000A5
S113001052C0000050C000004EC000004CC00000A0
S11300204AC0000048C0000046C0000044C00000B0
S113003042C0000040C000003EC000003CC00000C0
S11300403AC0000038C0000036C0000034C00000D0
S113005032C0000030C000002EC000002CC00000E0
S11300602AC0000028C0000026C0000024C00000F0
S113007022C0000020C000001EC000001CC0000000
S11300801AC0000018C0000016C0000011241FBED2
S1130090CFEFD0E1DEBFCDBF11E0A0E0B1E0E2E4FC
S11300A0F1E000E00BBF02C007900D92A431B1074C
S11300B0D9F715D044C0A4CF1092980083E380935D
S11300C0990088E080939A0086E080939D000895CB
S11300D090919B0095FFFCCF80939C000895CF9353
S11300E0DF93CDB7DEB763970FB6F894DEBF0FBECC
S11300F0CDBF83E1E0E0F1E0DE01119601900D92C5
S11301008A95E1F7D9DF00E010E00331110568F4C6
S1130110E1E0F0E0EC0FFD1FE00FF11F8081882388
S113012021F0D6DF0F5F1F4FF0CF2FEF83ED90E369
S1130130215080409040E1F700C00000E4CFF894E3
S1050140FFCFEB
S113014248656C6C6F2041746D656761313238218A
S10701520D0A00008E
S9030000FC
