S010000065785F77726974652E73726563AD
S113000045C0000060C000005EC000005CC000008D
S11300105AC0000058C0000056C0000054C0000080
S113002052C0000050C000004EC000004CC0000090
S11300304AC0000048C0000046C0000044C00000A0
S113004042C0000040C000003EC000003CC00000B0
S11300503AC0000038C0000036C0000034C00000C0
S113006032C0000030C000002EC000002CC00000D0
S11300702AC0000028C000007CC0000024C000008A
S113008022C0000020C000001EC0000011241FBEBA
S1130090CFEFD0E1DEBFCDBF11E0A0E0B1E0E8EDED
S11300A0F1E000E00BBF02C007900D92AE30B10743
S11300B0D9F721E0AEE0B1E001C01D92A531B2074D
S11300C0E1F716D087C09CCF81E487B987E886B969
S11300D00895F89486B1806486B9349BFECF24B128
S11300E085B1837090E0982F8827822B78940895A7
S11300F08FEF87BB2AD080E091E090931201809328
S11301001101E2DFE6DF8130944010F018BAFACF33
S11301108FEF88BBF7CF8A3079F480919B0085FFFD
S1130120FCCF8AE080939C0080919B0085FFFCCFEC
S11301308DE080939C0006C090919B0095FFFCCFBE
S113014080939C0080E090E008951092980083E3EF
S11301508093990088E980939A0086E080939D00BB
S11301607894089590919B0095FFFCCF80939C0018
S113017008951F920F920FB60F9211240BB60F928F
S11301802F933F934F935F936F937F938F939F939B
S1130190AF93BF93EF93FF9380919B0088233CF42C
S11301A080919C0080930E0180910E01DBDFFF9112
S11301B0EF91BF91AF919F918F917F916F915F91DB
S11301C04F913F912F910F900BBE0F900FBE0F9048
S10B01D01F901895F894FFCF6D
S11101D800000002000000008B000000000088
S9030000FC
